:020000040000FA
:1000000068020010C5010000CD010000CF01000012
:10001000D1010000D3010000D50100000000000064
:10002000000000000000000000000000D7010000F8
:10003000D901000000000000DB010000DD0100002C
:10004000DF010000DF010000DF010000DF01000030
:10005000DF010000DF010000DF010000DF01000020
:10006000DF010000DF010000DF010000DF01000010
:10007000DF010000DF010000DF010000DF01000000
:10008000DF010000DF010000DF010000DF010000F0
:10009000DF010000DF010000DF010000DF010000E0
:1000A000DF010000DF010000DF010000DF010000D0
:1000B000DF010000DF010000DF010000DF010000C0
:1000C000DF010000DF010000DF010000DF010000B0
:1000D000DF010000DF010000DF010000DF010000A0
:1000E000DF010000DF010000DF010000DF01000090
:1000F000DF010000DF010000DF010000DF01000080
:10010000DF010000DF010000DF010000DF0100006F
:10011000DF010000DF010000DF010000DF0100005F
:10012000DF010000DF01000000F002F800F03AF803
:100130000AA090E8000C82448344AAF10107DA4542
:1001400001D100F02FF8AFF2090EBAE80F0013F05A
:10015000010F18BFFB1A43F001031847080C0000F9
:10016000280C0000103A24BF78C878C1FAD852078A
:1001700024BF30C830C144BF04680C607047000021
:100180000023002400250026103A28BF78C1FBD8A0
:10019000520728BF30C148BF0B6070471FB51FBD55
:1001A00010B510BD00F02FF81146FFF7F7FF00F073
:1001B00053F900F04DF803B4FFF7F2FF03BC00F071
:1001C00055F800000948804709480047FEE7FEE768
:1001D000FEE7FEE7FEE7FEE7FEE7FEE7FEE7FEE7F7
:1001E00004480549034A054B70470000010300001D
:1001F000290100006800001068020010680000106B
:10020000704770477047754600F02CF8AE46050001
:100210006946534620F00700854618B020B5FFF721
:10022000DFFFBDE820404FF000064FF000074FF021
:1002300000084FF0000B21F00701AC46ACE8C00904
:10024000ACE8C009ACE8C009ACE8C0098D4670470D
:1002500010B50446AFF300802046BDE81040FFF71C
:10026000AABF000000487047040000100149182090
:10027000ABBEFEE726000200704700000021164AD0
:1002800011601146096841EA40011160134909688B
:1002900021F00101114A11601146096821F00201A3
:1002A00011601146096841F00401116000210C4AF7
:1002B000116004E00A490968491C094A11600849AB
:1002C000096841F288329142F4D30449096821F067
:1002D0000401024A11607047FC3F0050FC3F03508C
:1002E0000000001000B5034603E013F8010B00F016
:1002F0006DF818780028F8D100BD0000FFFFFFFF5F
:1003000008B53048006820F020002F49C1F83802B5
:1003100000200862009003E000BF0098401C00909D
:100320000098C828F8D301202749086400204864B1
:1003300001204864252088602248006820F0800061
:10034000C1F8380200BF2048C06800F00100002852
:10035000F9D003201C49086700204867012048673E
:1003600088670846806F1849B03108601648D0F891
:10037000380220F480601449C1F838020846D0F8E9
:10038000380220F480700F49086001200E4988640B
:100390000020C8640120C8642320086100BF0A4807
:1003A000406900F001000028F9D000200649C03162
:1003B00008600549C1F8C00001200349C831086040
:1003C00008BD000038820440008004400021164A25
:1003D00011601146096841EA40011160134909683A
:1003E00041F00101114A11601146096821F0020132
:1003F00011601146096841F00401116000210C4AA6
:10040000116004E00A490968491C094A1160084959
:10041000096841F288329142F4D30449096821F015
:100420000401024A11607047FC3F0050FC3F03503A
:100430000000001000B53820FFF720FF0C20FFF768
:100440001DFF0620FFF71AFF0120FFF717FF80208E
:10045000FFF714FF00BD00008AB05A48006820F082
:1004600010005949C1F838020846D0F8800040F41D
:10047000005055498031086040F6017053490860CA
:1004800002205349486700200990089000244FF645
:10049000FF7050490860504908604E48006820F4D9
:1004A00000704C490860FFF7C5FFC020FFF7E6FE6B
:1004B00086E04A48006800F40070002877D143487D
:1004C000006840F080704149086000BF3F48006903
:1004D00000F000400028F9D03C480069C0F38910C2
:1004E0000990099800F05EFB019000F013FB0746AD
:1004F0004FF066323A4B00F00FFA0022394BCDE94B
:10050000020100F0B1F8054600F07CF80890364989
:10051000089800F05BFB054600F028FB81460BE0E5
:100520000A2099FBF0F100FB119004A941F8240086
:100530000A2099FBF0F9641CB9F1000FF0DC641E8D
:100540000120FFF79BFEA2461CE004A810F82A0039
:10055000303000F0FF0B5846FFF738FF1C20FFF744
:100560008DFE00202149086004E020480068401CFE
:100570001E4908601D48006841F288318842F4D362
:10058000AAF1010ABAF1000FDFDA0020174908606A
:1005900004E016480068401C1449086013480068CD
:1005A00041F288318842F4D3002409E0FFE710A02B
:1005B000FFF798FE1C20FFF761FE0120FFF75EFEAB
:1005C00077E70000388204400080044000C001400A
:1005D000004004400080005000800350FC3F005069
:1005E00066660A400000904000007A440000001057
:1005F00050726573732074686520737769746368DB
:100600000000000021F00042A2F16052B2F5801F0C
:1006100001F0004328BFD2F17F6C0BD95FEA001CC8
:1006200043EAC20242EB507018BF704728BF20F067
:1006300001007047B2F5801FBCBF184670474FEAF3
:10064000410C1CF5001F02D2084600F086BB70B5B5
:1006500000F00CFA00000089FFF7F6BF4FF00040F1
:10066000A0F58000704700002DE9C04130B4DFF8EC
:10067000A0C23CEA111418BF3CEA131400F0EC804D
:1006800081EA03051CEA111444EAD57418BF1CEA78
:10069000131500F0C780A4EB05044FF0004545EAB0
:1006A000C12145EAC32341EA505143EA525304F1C0
:1006B0007F74994204F500344FEAC0204FEAC22209
:1006C00008BF904200F09C804FEA13650FF240167D
:1006D000765D4FEA134506FB05F7C7F1807706FB09
:1006E00007F74FEAD737A7FB03687642C8F580388B
:1006F000A7FB06CE38BFA8F1010807FB08E64FF0BC
:10070000000EA6FB028CE6FB03CEDCF1000CCEF162
:10071000004E38BFAEF1010EA6FB0C584FF000079B
:100720004FF00005E6FB0E87A1FB08C6A0FB07CE35
:1007300016EB0E0645F10005E1FB076515F1E04EED
:100740007EBFA4F580345FEA46066D4116F180074E
:1007500045F100054FEA17274FEA066647EA0567A5
:10076000A6F1DE46B6F1805F4FEA15251FD938465F
:1007700024F0010C05EBC471BCF1FE6F01EB0C1110
:1007800002D8F0BCBDE8008124425CBF01F5801EA8
:100790009EEAC47F02D4F0BCBDE80081244238D474
:1007A000F0BCA1F1C041BDE8004100F0ADB94FEA95
:1007B000D22242EA43524FEAD323A7FB02864FEAF2
:1007C000D02040EA415007FB03661EEA0E0F4FEAB5
:1007D000D12105FB026658BFA6EB0056B6EB0056CA
:1007E0004FEA520E4EEAC37E18EB0E0E56EB530E36
:1007F000BDD518EB02085E417F1C55F10005B6E738
:100800004FF480154FF000074FF000064FF000083E
:10081000ADE7F0BC4FF0000001F1C04101F0004134
:10082000BDE8008111EA0C1F0CEA131500D00CE0A2
:1008300013EA0C1F00F025804FF00000F0BC81EAA5
:10084000030101F00041BDE80081F0BCBDE80041BA
:1008500081EA030100F058B9F0BCBDE8004170B571
:1008600000F004F9097EFC3E00F007B881EA0301BC
:100870004FF0000001F00041704781EA030100F0F1
:1008800043B9F0BCBDE800414FF00000214970477A
:10089000FFFDFBF9F7F5F4F2F0EEEDEBE9E8E6E445
:1008A000E3E1E0DEDDDBDAD8D7D5D4D3D1D0CFCDCC
:1008B000CCCBCAC8C7C6C5C4C2C1C0BFBEBDBCBB05
:1008C000BAB9B8B7B6B5B4B3B2B1B0AFAEADACAB00
:1008D000AAA9A8A8A7A6A5A4A3A3A2A1A09F9F9EDA
:1008E0009D9C9C9B9A99999897979695959493938C
:1008F000929191908F8F8E8E8D8C8C8B8B8A898923
:1009000088888787868585848483838282818180A5
:100910000000FF070000F87FDFF848C170B51CEA4F
:10092000111E1EBF1CEA13159EEA0C0F95EA0C0F50
:1009300000F06F8081EA030423EA4C134EEAD47E70
:1009400021EA4C1141F4801143F48013AE44A1FB21
:10095000024CA0FB0365AEF17F7E361955EB0C050A
:10096000A1FB034C4CF10003A0FB021C16EB0C0690
:10097000654153F10003094218BF46F0010613F424
:10098000007F0BD14FEA03314FEA0530340341EACF
:10099000155140EA16506FF003020AE04FEAC321F6
:1009A0004FEAC520F40241EA555140EA56506FF033
:1009B000020202EB2E4201EB025585EACE710AD00B
:1009C0005FEA440C18BF24F0004450F1000041F1EC
:1009D000000120EAD47040F2FE7C624500D270BD76
:1009E000A84214BF4FF080444FF04044002E08BF8F
:1009F0000024BEF1806FA8BFA1F1C041BDE87040E6
:100A000080F282804FF0000001F1C04101F000410E
:100A100070479EEA0C0F0CEA131518BF95EA0C0FED
:100A200006D04FF0000081EA030E0EF0004170BDC9
:100A300000F01CF88900013E00F007B800F009B88A
:100A40004FEA430C5FEA5C5C08D081EA030100F0E6
:100A50005BB84FEA410C5FEA5C5CF6D14FF00000F6
:100A6000014970470000FF070000F87F0EF1020EF9
:100A70002EF0030E5EF8046B364205D4012A43EBD8
:100A8000030515F5001F12D8012841EB010C1CF5D8
:100A9000001F0CD80ED14FEAD17C15F5001F0CEBCE
:100AA0004C0C0CF1020C08BF4CEBD37C04E04FF073
:100AB000080C01E04FEAD37C0CEB4C0526FA05F656
:100AC00006F00706B6F1040C06D20EEB860CBDE864
:100AD00070404CF0010C6047DFE80CF0090B02029B
:100AE0004FF000414FF00000A1F5002170BD194604
:100AF0001046012851EB010418BFD4F5001484BF3F
:100B0000002001F0004170BD0808A0F500114FEA77
:100B10003101704743004FEAD30C4FEA3C0C43408D
:100B20001FBF40070CF1605113F0FE4F70471CF0DF
:100B3000006F03D100200CF0004170470CF000431F
:100B400043EA507010B540EACC0000F0C0F800BF96
:100B5000000000924FEA0001FFF7D6BF4FF00041BE
:100B60004FF00000A1F500217047000041000B0E7E
:100B7000D3F19E0208D950F400034FEA032323FA6D
:100B800002F048BF4042704710B500F0A0F800BF27
:100B900049922480002070476FF0004282EA2000D2
:100BA00070470000B0FA80F310FA03F2C3F19D031E
:100BB0000AD0D90501EB1220530638BF704700F167
:100BC000010008BF20F00100704700004FF47F0CC7
:100BD0001CEAD0121EBF1CEAD11392EA0C0F93EA52
:100BE0000C0F00F0478090EA010F48BF42F480727A
:100BF0004FF0004C4CEA00204CEA012102EB0302CA
:100C0000A0FB0113A2F50002002918BF43F0010365
:100C10005B0028BF4FEA330342EB22425FEA132C0A
:100C20004CEBC2502EBFBCEB436FB2F57C0F70474C
:100C30004FEA036CBCF1004F08BF20F00100B2F591
:100C40007C0F38BF70470BD582F0FF0212F5803F52
:100C5000C8BF704700F1C040D8BF00F000407047E7
:100C600000F5000C5FEA4C0C48BF7047B0F1C04083
:100C700000F073B890EA010F0CEAD11348BF42F4B8
:100C80008072624538BF634504D280EA010000F0FB
:100C90000040704710B500F01AF800BF8900013E0F
:100CA00000F007B800F009B85FEA410C5FEA1C6C7D
:100CB00008D080EA010000F050B85FEA400C5FEA1B
:100CC0001C6CF6D14FF00040A0F5800070470EF18B
:100CD000020E2EF0030E5EF8044B244204D44FEAB9
:100CE0004102B2F17F4F11D84FEA4003B3F17F4F79
:100CF0000CD80ED14FEAD07CB2F17F4F0CEB4C0CEC
:100D00000CF1020C08BF4CEBD17C04E04FF0080C56
:100D100001E04FEAD17C0CEB4C0324FA03F404F01D
:100D20000704B4F1040C06D20EEB840CBDE81040AD
:100D30004CF0010C6047DFE80CF0070802024FF0AE
:100D40000040A0F5800010BD0846420018BFD2F157
:100D5000807288BF00F0004010BDFF2141EAD050F2
:100D6000C0057047840D0000000000100400000062
:100D700064010000880D00000400001064020000FF
:080D80008001000000000000EA
:04000005000001C531
:00000001FF
